:100000000C942A000C9447000C9447000C94470071
:100010000C9447000C9447000C9447000C94470044
:100020000C9447000C9447000C9447000C94470034
:100030000C9447000C9447000C9447000C94470024
:100040000C9447000C9447000C9447000C94470014
:100050000C94470011241FBECFE5D4E0DEBFCDBF16
:1000600011E0A0E6B0E0EAEBFAE002C005900D92E4
:10007000AE33B107D9F711E0AEE3B1E001C01D9294
:10008000AF33B107E1F70E948F040C945B050C9429
:10009000000095B39F7095BB9698979A25B3982FBB
:1000A000907F292B25BB25B3922B95BB979895B3B1
:1000B0009F7095BB9698979A95B38295807F982B61
:1000C00095BB95B3892B85BB9798089595B39F7081
:1000D00095BB969A979A25B3982F907F292B25BB8D
:1000E00025B3922B95BB979895B39F7095BB969A25
:1000F000979A95B38295807F982B95BB95B3892B62
:1001000085BB9798089581E00E944900089582E098
:100110000E94490008951F93882311F41CE001C038
:100120001EE0611111608F9A8E9A84B3806F84BB38
:1001300085B38F7085BB80E09698979A95B390634E
:1001400095BB95B3906395BB97988F5F8330A1F76C
:1001500085B38F7085BB9698979AAD9AAD9A97980C
:1001600088E20E946600812F0E9449000E9483005D
:100170000E9487001F910895823029F4862F8054B1
:100180000E9449000895862F80580E9449000895D2
:10019000CF93DF93EC018881882331F021960E9470
:1001A000660089918823D9F7DF91CF9108956F92E6
:1001B0007F928F929F92AF92BF92CF92DF92EF92F7
:1001C000FF920F931F93DF93CF93CDB7DEB7E42E4B
:1001D0006DB67EB62DB73EB7241B31090FB6F89425
:1001E0003EBF0FBE2DBF0DB71EB70F5F1F4F48019B
:1001F000442319F1FF240F2EFAE0AF2EF0E0BF2EBA
:10020000F0E0CF2EF0E0DF2EF02DA60195010E9448
:10021000F404605DF80161938F01622F732F842FC6
:10022000952FF394FE1488F3F401EE0DF11D319730
:1002300080810E946600EA94B9F70FB6F8947EBEFA
:100240000FBE6DBECF91DF911F910F91FF90EF9088
:10025000DF90CF90BF90AF909F908F907F906F90E6
:10026000089520E032E1829FA001839F500D929F6C
:10027000500D11244115510531F080E090E00196B8
:1002800084179507E0F3089590BD89B98AB1886114
:100290008AB95298663071F0673018F4653079F495
:1002A00005C0673029F0693051F406C080E808C005
:1002B00084E806C082E804C0529A86E801C086E855
:1002C000413011F4806303C0423009F4806222306F
:1002D00009F4886080BD08955D9BFECF8CB90895B8
:1002E000CF93DF93EC018881882331F021960E941F
:1002F0006C0189918823D9F7DF91CF91089581B35B
:100300008FEF81BB92B392BB94B384BB85B385BBA3
:100310001ABA1BBA089595B398708430E1F085300D
:1003200048F4813091F0813070F0823081F0833078
:10033000D9F40FC0863099F0863078F0873089F094
:10034000893091F410C090680FC0936E0DC0946412
:100350000BC0916409C0936207C0916105C09061B0
:1003600003C0936C01C0916095BB0895DF92EF923A
:10037000FF920F931F9310E00FEFEE24EA94FF24F7
:100380006894F3F8DD2401C01D2D02BB002319F091
:10039000000F000F01C00E2D812F0E948B0185B32D
:1003A0008F2585BB1E5F193078F7EFCF20E032E153
:1003B000829FA001839F500D929F500D11244115E3
:1003C000510549F408950197F1F72F5F3F4F241726
:1003D000350718F0089520E030E085E390E0F3CF92
:1003E00086B38F708F3041F0B09B09C0B19B09C0BC
:1003F000B29B09C0B39B09C080913E01089581E082
:10040000089582E0089583E0089584E00895DF92DE
:10041000EF92FF920F931F93EE24EA940F2EFFECBE
:10042000FF2EF02D0FE31CEF0F2EF3EFDF2EF02D3C
:100430000E94F00180933E010E948B0180913E0159
:10044000823061F0833018F4813071F405C083305C
:1004500039F0843049F406C012BBEACFD2BAE8CFF3
:10046000F2BAE6CF02BBE4CFE2BAE2CF8D9A95981A
:1004700085B38F6085BB80E060E00E948B0081E0E7
:1004800060E00E94BC0080E690E00E94C80082E02C
:1004900060E00E94BC0080E790E00E94C800369AAD
:1004A00082E066E00E94BC0064B175B180E090E03B
:1004B00044E00E94D700F3CF0F931F93062F8823A9
:1004C00019F0662359F411C0662379F010E08CE12D
:1004D0000E9449001F5F1017D0F307C010E088E1A9
:1004E0000E9449001F5F1017D0F31F910F910895CC
:1004F0000F931F93CF93DF9383E390E068E040E096
:1005000021E00E944401889A959885B38F6085BB4D
:1005100080E060E00E948B0081E060E00E94BC000F
:1005200080E890E00E94C80082E060E00E94BC0089
:1005300082EA90E00E94C800C0ECD0E002EA10E03D
:10054000CE010E9470018DE00E946C018AE00E9441
:100550006C01C8010E9470018DE00E946C018AE06C
:100560000E946C018DE00E946C018AE00E946C0187
:100570008FEF99E6A8E181509040A040E1F700C0DC
:10058000000081E061E00E945C02DACFDF93CF934C
:10059000CDB7DEB72A970FB6F894DEBF0FBECDBF3A
:1005A000DE011196E4E3F1E09AE001900D929150A2
:1005B000E1F7FE01E80FF11D418180E090E020E0CD
:1005C00030E045BB01968A309105DCF3C901F9CFD3
:1005D000EF92FF920F931F93DF93CF93CDB7DEB7C8
:1005E0002A970FB6F894DEBF0FBECDBFDE0111967D
:1005F000EAE2F1E08AE001900D928150E1F76FEFBD
:1006000080E090E0AFEF7E010894E11CF11C40E037
:1006100050E062BB662329F08830910524F4660F10
:1006200003C06A2F01C06A2FF701E80FF91F70811C
:1006300075BB0FEF19E628E1015010402040E1F7AB
:1006400000C0000001968A3091051CF3CA01E1CF79
:1006500085BB96989598979A82E08A95F1F700C0A5
:1006600097988FE697E10197F1F700C00000089591
:1006700085BB969A9598979A82E08A95F1F700C083
:1006800097988FEC97E00197F1F700C0000008956C
:100690008FEF81BB84BB8FE39CE90197F1F700C02A
:1006A000000088E30E9428038CE00E94280386E073
:1006B0000E94280381E00E94280380E80E9428030A
:1006C0000895CF93DF93EC018881882331F0219640
:1006D0000E94380389918823D9F7DF91CF9108953B
:1006E000CF93DF93EA01882341F4603178F4862FB9
:1006F0008F7080680E94280309C0813039F460310E
:1007000028F4862F8F70806C0E942803CE010E94EF
:100710006103DF91CF91089581E00E94280380E872
:100720000E9428030895CF92DF92EF92FF920F93D9
:100730001F93DF93CF93CDB7DEB7C954D0400FB628
:10074000F894DEBF0FBECDBFDE011196E0E8F0E009
:1007500082E201900D928150E1F7DE019396E2EE84
:10076000F0E087E201900D928150E1F70E9448038A
:10077000CE0101960E94610381E060E0AE014D5D13
:100780005F4F0E9470038FEF99E6A8E1815090407F
:10079000A040E1F700C0000000E010E00F2EFEE1F5
:1007A000EF2EFF24F02DCC24DD240EC08CE10E941E
:1007B00028038FEF99E6A8E181509040A040E1F72F
:1007C00000C000000F5F1F4F0E3111057CF3870141
:1007D00088E10E9428038FEF99E6A8E181509040BC
:1007E000A040E1F700C000000150104089F78601E9
:1007F000EBCF1ABA87E886B980E487B9089597B134
:100800008F70982B97B9369A349BFECF8AE18A95E0
:10081000F1F700C084B195B1392F20E0280F311DC8
:10082000822F932F08950F931F93DF93CF9300D0C0
:1008300000D00F92CDB7DEB70E94F9030E944803A3
:1008400089E091E00E94610381E060E048E151E0CD
:100850000E9470038E010F5F1F4F84EC0E942803DB
:1008600080E00E94FF03B8014AE050E00E941605B4
:1008700081E066E0A8010E9470038FEF94E3ACE092
:1008800081509040A040E1F700C00000E6CF2AB1BF
:1008900028612AB920B5266820BD9B01AC01220F32
:1008A000331F441F551F220F331F441F551F220F94
:1008B000331F441F551F220F331F441F551F60E075
:1008C00072E18AE790E00E94F404822F815089B996
:1008D0002150304040405040232F342F452F552782
:1008E00020BD08955F9BFECF8CB108955D9BFECF28
:1008F0008CB908951F93CF93DF93EC0188818823EF
:1009000051F010E00E9476041F5FFE01E10FF11D1F
:1009100080818823B9F7DF91CF911F910895CF92FD
:10092000DF92EF92FF920F931F93DF93CF93CDB798
:10093000DEB7C954D0400FB6F894DEBF0FBECDBFAE
:10094000DE011196E0E8F0E082E201900D92815024
:10095000E1F7DE019396E2EEF0E087E201900D927E
:100960008150E1F70E944803CE0101960E94610385
:1009700081E060E0AE014D5D5F4F0E9470038FEF3C
:1009800099E6A8E181509040A040E1F700C0000046
:1009900060E875E280E090E00E9447047E010894E0
:1009A000E11CF11C08E211E00F2EF3E2CF2EDD2452
:1009B000F02DCC0EDD1EC7010E947A04C8010E94F2
:1009C0007A04C6010E947A04C8010E947A0488E170
:1009D0000E9428038FEF99E6A8E181509040A04043
:1009E000E1F700C00000E7CFA1E21A2EAA1BBB1B53
:1009F000FD010DC0AA1FBB1FEE1FFF1FA217B307EB
:100A0000E407F50720F0A21BB30BE40BF50B661F00
:100A1000771F881F991F1A9469F7609570958095C4
:100A200090959B01AC01BD01CF010895FB019F0191
:100A3000E8944230C4F04532B4F44A3029F497FBCC
:100A40001EF4909581959F4F642F77270E9447054C
:100A5000805D8A330CF0895D8193CB010097A1F70B
:100A600016F45DE251931082C9010C943705DC0144
:100A7000FC01672F71917723E1F7329704C07C91D5
:100A80006D9370836291AE17BF07C8F30895AA1BD8
:100A9000BB1B51E107C0AA1FBB1FA617B70710F069
:100AA000A61BB70B881F991F5A95A9F7809590959B
:0A0AB000BC01CD010895F894FFCFBA
:100ABA00414443264C4344206279444E68617400A1
:100ACA00414443303A20303030302F313032340014
:100ADA004C6520447579204E6861742C203230317F
:100AEA0036333033372C204454565430372D4B3656
:100AFA0031005669656E20445456542C2054727540
:100B0A006F6E67204448424B204861204E6F69004F
:100B1A004C6520447579204E6861742C203230313E
:100B2A0036333033372C204454565430372D6B36F5
:100B3A0031005669656E204469656E2074752D56BC
:100B4A0069656E2054686F6E672C205472756F6EDB
:100B5A0067204448424B484E005465737420414410
:100B6A00432026204C434400414443303A2020206D
:100B7A0020202F31303233000A0088EB4C492B19E0
:0E0B8A0018CB080988EB4C492B1918CB080929
:00000001FF
