:100000000C942A000C9447000C9447000C94470071
:100010000C9447000C9447000C9447000C94470044
:100020000C9447000C9447000C9447000C94470034
:100030000C9447000C9447000C9447000C94470024
:100040000C9447000C9447000C9447000C94470014
:100050000C94470011241FBECFE5D4E0DEBFCDBF16
:1000600011E0A0E6B0E0E4EFF1E102C005900D92EE
:10007000AA36B107D9F711E0AAE6B1E001C01D9296
:10008000AB36B107E1F70E9491040C94F8080C9488
:10009000000095B39F7095BB9698979A25B3982FBB
:1000A000907F292B25BB25B3922B95BB979895B3B1
:1000B0009F7095BB9698979A95B38295807F982B61
:1000C00095BB95B3892B85BB9798089595B39F7081
:1000D00095BB969A979A25B3982F907F292B25BB8D
:1000E00025B3922B95BB979895B39F7095BB969A25
:1000F000979A95B38295807F982B95BB95B3892B62
:1001000085BB9798089581E00E944900089582E098
:100110000E94490008951F93882311F41CE001C038
:100120001EE0611111608F9A8E9A84B3806F84BB38
:1001300085B38F7085BB80E09698979A95B390634E
:1001400095BB95B3906395BB97988F5F8330A1F76C
:1001500085B38F7085BB9698979AAD9AAD9A97980C
:1001600088E20E946600812F0E9449000E9483005D
:100170000E9487001F910895823029F4862F8054B1
:100180000E9449000895862F80580E9449000895D2
:10019000CF93DF93EC018881882331F021960E9470
:1001A000660089918823D9F7DF91CF9108956F92E6
:1001B0007F928F929F92AF92BF92CF92DF92EF92F7
:1001C000FF920F931F93DF93CF93CDB7DEB7E42E4B
:1001D0006DB67EB62DB73EB7241B31090FB6F89425
:1001E0003EBF0FBE2DBF0DB71EB70F5F1F4F48019B
:1001F000442319F1FF240F2EFAE0AF2EF0E0BF2EBA
:10020000F0E0CF2EF0E0DF2EF02DA60195010E9448
:10021000B005605DF80161938F01622F732F842F09
:10022000952FF394FE1488F3F401EE0DF11D319730
:1002300080810E946600EA94B9F70FB6F8947EBEFA
:100240000FBE6DBECF91DF911F910F91FF90EF9088
:10025000DF90CF90BF90AF909F908F907F906F90E6
:10026000089520E032E1829FA001839F500D929F6C
:10027000500D11244115510531F080E090E00196B8
:1002800084179507E0F3089590BD89B98AB1886114
:100290008AB95298663071F0673018F4653079F495
:1002A00005C0673029F0693051F406C080E808C005
:1002B00084E806C082E804C0529A86E801C086E855
:1002C000413011F4806303C0423009F4806222306F
:1002D00009F4886080BD08955D9BFECF8CB90895B8
:1002E000CF93DF93EC018881882331F021960E941F
:1002F0006C0189918823D9F7DF91CF91089581B35B
:100300008FEF81BB92B392BB94B384BB85B385BBA3
:100310001ABA1BBA089595B398708430E1F085300D
:1003200048F4813091F0813070F0823081F0833078
:10033000D9F40FC0863099F0863078F0873089F094
:10034000893091F410C090680FC0936E0DC0946412
:100350000BC0916409C0936207C0916105C09061B0
:1003600003C0936C01C0916095BB0895DF92EF923A
:10037000FF920F931F9310E00FEFEE24EA94FF24F7
:100380006894F3F8DD2401C01D2D02BB002319F091
:10039000000F000F01C00E2D812F0E948B0185B32D
:1003A0008F2585BB1F5F193078F7EFCF20E032E152
:1003B000829FA001839F500D929F500D11244115E3
:1003C000510549F408950197F1F72F5F3F4F241726
:1003D000350718F0089520E030E085E390E0F3CF92
:1003E00086B38F708F3051F0B09B0AC0B19B0AC0AA
:1003F000B29B0AC0B39B0AC080E0089580E00895D4
:1004000081E0089582E0089583E0089584E00895EE
:10041000DF92EF92FF920F931F93EE24EA940F2E38
:10042000FFECFF2EF02D0FE31CEF0F2EF3EFDF2E6E
:10043000F02D0E94F00180936A010E948B0180914F
:100440006A01823061F0833018F4813071F405C0A4
:10045000833039F0843049F406C012BBEACFD2BAF7
:10046000E8CFF2BAE6CF02BBE4CFE2BAE2CF8D9A90
:10047000959885B38F6085BB80E060E00E948B001B
:1004800081E060E00E94BC0080E690E00E94C8002D
:1004900082E060E00E94BC0080E790E00E94C8001B
:1004A000369A82E066E00E94BC0064B175B180E0DB
:1004B00090E044E00E94D700F3CF0F931F93062FE4
:1004C000882319F0662359F411C0662379F010E0EF
:1004D0008CE10E9449001F5F1017D0F307C010E0A5
:1004E00088E10E9449001F5F1017D0F31F910F9100
:1004F00008950F931F93CF93DF9383E390E068E019
:1005000040E021E00E944401889A959885B38F606D
:1005100085BB80E060E00E948B0081E060E00E948B
:10052000BC0080E890E00E94C80082E060E00E9489
:10053000BC0082EA90E00E94C800C0ECD0E002EA71
:1005400010E0CE010E9470018DE00E946C018AE0F3
:100550000E946C01C8010E9470018DE00E946C0134
:100560008AE00E946C018DE00E946C018AE00E948A
:100570006C018FEF99E6A8E181509040A040E1F72F
:1005800000C0000081E061E00E945D02DACFDF93ED
:10059000CF93CDB7DEB72A970FB6F894DEBF0FBE64
:1005A000CDBFDE011196EFE5F1E09AE001900D92EA
:1005B0009150E1F7FE01E80FF11D418180E090E0EC
:1005C00020E030E045BB01968A309105DCF3C9019B
:1005D000F9CFEF92FF920F931F93DF93CF93CDB795
:1005E000DEB72A970FB6F894DEBF0FBECDBFDE018F
:1005F0001196E5E5F1E08AE001900D928150E1F776
:100600006FEF80E090E0AFEF7E010894E11CF11CF9
:1006100040E050E062BB662331F0883091052CF455
:10062000660F660F03C06A2F01C06A2FF701E80F3B
:10063000F91F708175BB0FEF14E32CE001501040DF
:100640002040E1F700C0000002968A30910514F3C3
:10065000CA01E0CF85BB96989598979A82E08A95D3
:10066000F1F700C097988FE697E10197F1F700C086
:100670000000089585BB969A9598979A82E08A958E
:10068000F1F700C097988FEC97E00197F1F700C061
:10069000000008958FEF81BB84BB8FE39CE9019735
:1006A000F1F700C0000088E30E942A038CE00E945A
:1006B0002A0386E00E942A0381E00E942A0380E840
:1006C0000E942A030895CF93DF93EC018881882349
:1006D00031F021960E943A0389918823D9F7DF915E
:1006E000CF910895CF93DF93EA01882341F46031DD
:1006F00078F4862F8F7080680E942A0309C08130A9
:1007000039F4603128F4862F8F70806C0E942A03A0
:10071000CE010E946303DF91CF91089581E00E9492
:100720002A0380E80E942A030895CF92DF92EF9275
:10073000FF920F931F93DF93CF93CDB7DEB7C954CA
:10074000D0400FB6F894DEBF0FBECDBFDE011196CC
:10075000E0E8F0E082E201900D928150E1F7DE01E5
:100760009396E2EEF0E087E201900D928150E1F77E
:100770000E944A03CE0101960E94630381E060E07B
:10078000AE014D5D5F4F0E9472038FEF99E6A8E1C5
:1007900081509040A040E1F700C0000000E010E070
:1007A0000F2EFEE1EF2EFF24F02DCC24DD240EC011
:1007B0008CE10E942A038FEF99E6A8E181509040D6
:1007C000A040E1F700C000000F5F1F4F0E31110580
:1007D0007CF3870188E10E942A038FEF99E6A8E164
:1007E00081509040A040E1F700C00000015010404F
:1007F00089F78601EBCF1ABA87E886B980E487B912
:10080000089597B18F70982B97B9369A349BFECF85
:100810008AE18A95F1F700C084B195B1392F20E0C3
:10082000280F311D822F932F08950F931F93DF936D
:10083000CF9300D000D00F92CDB7DEB70E94FB035C
:100840000E944A0389E091E00E94630381E060E036
:1008500048E151E00E9472038E010F5F1F4F84EC4C
:100860000E942A0380E00E940104B8014AE050E09F
:100870000E94D20581E066E0A8010E9472038FEF1A
:1008800094E3ACE081509040A040E1F700C000004C
:10089000E6CF2AB128612AB920B5266820BD9B0180
:1008A000AC01220F331F441F551F220F331F441F5B
:1008B000551F220F331F441F551F220F331F441F84
:1008C000551F60E072E18AE790E00E94B005822F38
:1008D000815089B92150304040405040232F342F5F
:1008E000452F552720BD08955F9BFECF8CB10895FD
:1008F0005D9BFECF8CB908951F93CF93DF93EC01DE
:100900008881882351F010E00E9478041F5FFE0167
:10091000E10FF11D80818823B9F7DF91CF911F91FD
:1009200008952F923F924F925F927F928F929F9263
:10093000AF92BF92CF92DF92EF92FF920F931F93ED
:10094000DF93CF9300D000D000D0CDB7DEB70E94A8
:100950004A0380E060E048E251E00E94720381E0D7
:1009600061E049E351E00E94720381E06BE043E4FF
:1009700051E00E9472038D9A1DBC1CBC83EC99E06F
:1009800097BD86BD82E88FBD8BE18EBD81E490E08E
:100990009BBD8ABDFF242E010894411C511C0F2EC3
:1009A000FFE42F2EF1E03F2EF02D01E410E00F2E9A
:1009B000F3E4CF2EF1E0DF2EF02DEE240F2EF0E445
:1009C000AF2EF1E0BF2EF02D0F2EF9E48F2EF1E0C7
:1009D0009F2EF02D0F2EF4EB7F2EF02D0E94F001B4
:1009E00080936A010E948B0180916A018230E1F05C
:1009F000833018F4813091F705C0833039F18430A9
:100A000069F769C01BBD0ABD81E06BE0A6010E94C9
:100A100072038FEF90E7A2E081509040A040E1F791
:100A200000C00000FE2CDACFBBBCAABC81E06BE0AA
:100A3000A4010E9472038FEF90E7A2E081509040E2
:100A4000A040E1F700C00000F72CC8CF8AB59BB5E5
:100A500081349105B0F18AB59BB5A1E087339A073F
:100A600080F58AB59BB50E969BBD8ABDBAE0FB0E9C
:100A700000D000D000D0EDB7FEB73196ADB7BEB70D
:100A800012965C924E92119733822282F4821582E2
:100A90000E94F3058DB79EB706960FB6F8949EBFD9
:100AA0000FBE8DBF81E06BE0A2010E9472038FEF49
:100AB00091EEA4E081509040A040E1F700C000001A
:100AC0008DCF8FEF91EEA4E081509040A040E1F7F0
:100AD00000C0000083CF8AB59BB58B349105B0F17F
:100AE0008AB59BB5A1E081349A0780F58AB59BB59C
:100AF0000E979BBD8ABDB6EFFB0E00D000D000D094
:100B0000EDB7FEB73196ADB7BEB712965C924E9276
:100B1000119733822282F48215820E94F3058DB7E9
:100B20009EB706960FB6F8949EBF0FBE8DBF81E0AC
:100B30006BE0A2010E9472038FEF91EEA4E081505E
:100B40009040A040E1F700C0000048CF8FEF91EE49
:100B5000A4E081509040A040E1F700C000003ECFEB
:100B6000A1E21A2EAA1BBB1BFD010DC0AA1FBB1FB1
:100B7000EE1FFF1FA217B307E407F50720F0A21B23
:100B8000B30BE40BF50B661F771F881F991F1A9490
:100B900069F760957095809590959B01AC01BD01BA
:100BA000CF010895FB019F01E8944230C4F0453223
:100BB000B4F44A3029F497FB1EF4909581959F4F29
:100BC000642F77270E94AD08805D8A330CF0895D21
:100BD0008193CB010097A1F716F45DE25193108247
:100BE000C9010C941308AEE0B0E0E9EFF5E00C9415
:100BF000CF080D891E8986E08C831A8309838FEFC5
:100C00009FE79E838D839E01275E3F4FCE01019615
:100C10006F89788DA9010E941606EF81F885E00F93
:100C2000F11F10822E96E4E00C94EB08ACE0B0E0EB
:100C3000ECE1F6E00C94C1086C011B018A01FC0197
:100C400017821682838181FFD1C12E010894411C35
:100C5000511CF6019381F10193FD859193FF8191E0
:100C60001F01882309F4BEC1853239F493FD8591B3
:100C700093FF81911F01853229F490E0B6010E9413
:100C80002308E7CFEE24FF2420E02032B0F48B329B
:100C900069F08C3228F4803251F0833271F40BC049
:100CA0008D3239F0803349F421602CC022602460F9
:100CB00029C0286027C0206125C027FD2CC0382FFF
:100CC00030533A3098F426FF08C08E2D880FE82E56
:100CD000EE0CEE0CE80EE30E15C08F2D880FF82EEB
:100CE000FF0CFF0CF80EF30E20620CC08E3221F4C4
:100CF00026FD78C1206406C08C3611F4206802C03D
:100D0000883649F4F10193FD859193FF81911F018C
:100D1000882309F0BACF982F9554933018F0905249
:100D2000933028F40C5F1F4FFFE3F9830DC0833627
:100D300031F0833771F0833509F060C022C0F801CB
:100D4000808189830E5F1F4F420171E0A72EB12C75
:100D500016C062E0662E712C600E711EF801808054
:100D6000918026FF03C06E2D70E002C06FEF7FEF11
:100D7000C4012C870E9408085C0183012C852F7711
:100D800017C052E0652E712C600E711EF801808034
:100D9000918026FF03C06E2D70E002C06FEF7FEFE1
:100DA000C4012C870E94FD075C012C85206883010B
:100DB00023FD20C008C080E290E0B6012C870E948D
:100DC0002308FA942C858F2D90E0A816B90698F385
:100DD00011C0F40127FD859127FF81914F0190E01B
:100DE000B6012C870E9423082C85F110FA940894F0
:100DF000A108B108A114B10461F7F1C0843611F063
:100E0000893649F527FF08C0F80160817181828128
:100E100093810C5F1F4F09C0F801608171818827A1
:100E200077FD8095982F0E5F1F4F4FE6B42EB222AC
:100E300097FF09C090958095709561957F4F8F4F72
:100E40009F4FF0E8BF2AA2012AE030E00E944F083D
:100E5000782E741845C0853731F43FEEB32EB22298
:100E60002AE030E025C099EFB92EB2228F36C1F0CA
:100E7000803720F4883509F0B5C00DC0803721F0E7
:100E8000883709F0AFC002C020E1B22AB4FE0BC01F
:100E900084E0B82A08C0B4FE09C0E6E0BE2A06C055
:100EA00028E030E005C020E130E002C020E132E07F
:100EB000B7FE08C0F80160817181828193810C5F67
:100EC0001F4F07C0F8016081718180E090E00E5FE4
:100ED0001F4FA2010E944F08782E7418FFE7BF220F
:100EE000B6FE0BC02EEFB2227E1438F4B4FE07C05B
:100EF000B2FC05C08FEEB82202C0A72C01C0AE2CF8
:100F00008B2D90E0B4FE0DC0FE01E70DF11D208198
:100F1000203319F4E9EEBE2209C0A394B2FE06C044
:100F200004C086789070009709F0A3948B2C9924C4
:100F3000B3FC14C0B0FE0FC0AF1428F4E72CEF0CC4
:100F4000EA18AF2C08C0E72C06C080E290E0B6019A
:100F50000E942308A394AF14C0F304C0AF1410F48C
:100F6000FA1801C0FF2484FE0FC080E390E0B601B0
:100F70000E94230882FE1FC081FE03C088E590E026
:100F800010C088E790E00DC0C4018678907000978B
:100F900091F081FC02C080E201C08BE2B7FC8DE2DF
:100FA00090E0B6010E94230806C080E390E0B601FD
:100FB0000E942308EA947E14C0F37A94F201E70DAC
:100FC000F11D808190E0B6010E9423087720A9F7E7
:100FD00006C080E290E0B6010E942308FA94FF2048
:100FE000C1F737CEF6012681378102C02FEF3FEFE0
:100FF000C9012C96E2E10C94DD08FC0105906150DA
:1010000070400110D8F7809590958E0F9F1F08951E
:10101000FC016150704001900110D8F780959095C7
:101020008E0F9F1F0895DC01FC01672F71917723BC
:10103000E1F7329704C07C916D9370836291AE1793
:10104000BF07C8F308950F931F93CF93DF938C01CD
:10105000EB018B8181FF1BC082FF0DC02E813F8180
:101060008C819D812817390764F4E881F981019307
:10107000F983E88306C0E885F985802F09950097F4
:1010800031F48E819F8101969F838E8302C00FEF82
:101090001FEFC801DF91CF911F910F910895FA01C1
:1010A000AA27283051F1203181F1E8946F936E7FA7
:1010B0006E5F7F4F8F4F9F4FAF4FB1E03ED0B4E098
:1010C0003CD0670F781F891F9A1FA11D680F791FD9
:1010D0008A1F911DA11D6A0F711D811D911DA11DEA
:1010E00020D009F468943F912AE0269F11243019FA
:1010F000305D3193DEF6CF010895462F4770405D95
:101100004193B3E00FD0C9F7F6CF462F4F70405D43
:101110004A3318F0495D31FD4052419302D0A9F79E
:10112000EACFB4E0A6959795879577956795BA9598
:10113000C9F700976105710508959B01AC010A2E5E
:1011400006945795479537952795BA95C9F7620F35
:10115000731F841F951FA01D0895AA1BBB1B51E17F
:1011600007C0AA1FBB1FA617B70710F0A61BB70B17
:10117000881F991F5A95A9F780959095BC01CD01BC
:1011800008952F923F924F925F926F927F928F922B
:101190009F92AF92BF92CF92DF92EF92FF920F9306
:1011A0001F93CF93DF93CDB7DEB7CA1BDB0B0FB610
:1011B000F894DEBF0FBECDBF09942A8839884888CD
:1011C0005F846E847D848C849B84AA84B984C88463
:1011D000DF80EE80FD800C811B81AA81B981CE0F5A
:1011E000D11D0FB6F894DEBF0FBECDBFED0108953F
:0411F000F894FFCFA1
:1011F400414443264C4344206279444E6861740060
:10120400414443303A20303030302F3130323400D2
:101214004C6520447579204E6861742C203230313D
:1012240036333033372C204454565430372D4B3614
:1012340031005669656E20445456542C20547275FE
:101244006F6E67204448424B204861204E6F69000E
:101254004C6520447579204E6861742C20323031FD
:1012640036333033372C204454565430372D6B36B4
:1012740031005669656E204469656E2074752D567B
:1012840069656E2054686F6E672C205472756F6E9A
:1012940067204448424B484E0054657374204144CF
:1012A400432026204C434400414443303A2020202C
:1012B40020202F313032330044696575206B686912
:1012C400656E20736572766F00476F632071756178
:1012D400793A0020302020200031383020200025A9
:1012E400336420200088EB4C492B1918CB0809885B
:0A12F400EB4C492B1918CB08090038
:00000001FF
