:100000000C942A000C943F000C943F000C943F0089
:100010000C943F000C943F000C943F000C943F0064
:100020000C943F000C943F000C943F000C943F0054
:100030000C943F000C943F000C943F000C943F0044
:100040000C943F000C943F000C943F000C943F0034
:100050000C943F0011241FBECFE5D4E0DEBFCDBF1E
:1000600011E0A0E6B0E0E6E0F9E002C005900D92F4
:10007000A832B107D9F70E9415040C9481040C949E
:10008000000095B39F7095BB9698979A25B3982FCB
:10009000907F292B25BB25B3922B95BB979895B3C1
:1000A0009F7095BB9698979A95B38295807F982B71
:1000B00095BB95B3892B85BB9798089595B39F7091
:1000C00095BB969A979A25B3982F907F292B25BB9D
:1000D00025B3922B95BB979895B39F7095BB969A35
:1000E000979A95B38295807F982B95BB95B3892B72
:1000F00085BB9798089581E00E944100089582E0B1
:100100000E94410008951F93882311F41CE001C050
:100110001EE0611111608F9A8E9A84B3806F84BB48
:1001200085B38F7085BB80E09698979A95B390635E
:1001300095BB95B3906395BB97988F5F8330A1F77C
:1001400085B38F7085BB9698979AAD9AAD9A97981C
:1001500088E20E945E00812F0E9441000E947B0085
:100160000E947F001F910895823029F4862F8054C9
:100170000E9441000895862F80580E9441000895F2
:10018000CF93DF93EC018881882331F021960E9480
:100190005E0089918823D9F7DF91CF9108956F92FE
:1001A0007F928F929F92AF92BF92CF92DF92EF9207
:1001B000FF920F931F93DF93CF93CDB7DEB7E42E5B
:1001C0006DB67EB62DB73EB7241B31090FB6F89435
:1001D0003EBF0FBE2DBF0DB71EB70F5F1F4F4801AB
:1001E000442319F1FF240F2EFAE0AF2EF0E0BF2ECA
:1001F000F0E0CF2EF0E0DF2EF02DA60195010E9459
:100200001A04605DF80161938F01622F732F842FB0
:10021000952FF394FE1488F3F401EE0DF11D319740
:1002200080810E945E00EA94B9F70FB6F8947EBE12
:100230000FBE6DBECF91DF911F910F91FF90EF9098
:10024000DF90CF90BF90AF909F908F907F906F90F6
:10025000089520E032E1829FA001839F500D929F7C
:10026000500D11244115510531F080E090E00196C8
:1002700084179507E0F3089590BD89B98AB1886124
:100280008AB95298663071F0673018F4653079F4A5
:1002900005C0673029F0693051F406C080E808C015
:1002A00084E806C082E804C0529A86E801C086E865
:1002B000413011F4806303C0423009F4806222307F
:1002C00009F4886080BD08955D9BFECF8CB90895C8
:1002D000CF93DF93EC018881882331F021960E942F
:1002E000640189918823D9F7DF91CF91089581B373
:1002F0008FEF81BB92B392BB94B384BB85B385BBB4
:100300001ABA1BBA089595B398708430E1F085301D
:1003100048F4813091F0813070F0823081F0833088
:10032000D9F40FC0863099F0863078F0873089F0A4
:10033000893091F410C090680FC0936E0DC0946422
:100340000BC0916409C0936207C0916105C09061C0
:1003500003C0936C01C0916095BB0895DF92EF924A
:10036000FF920F931F9310E00FEFEE24EA94FF2407
:100370006894F3F8DD2401C01D2D02BB002311F0A9
:10038000000F01C00E2D812F0E94830185B38F25A0
:1003900085BB1F5F1A3080F7F0CF20E032E1829FEB
:1003A000A001839F500D929F500D112441155105BE
:1003B00049F408950197F1F72F5F3F4F2417350750
:1003C00018F0089520E030E085E390E0F3CF86B3A5
:1003D0008F708F3051F0B09B0AC0B19B0AC0B29BA6
:1003E0000AC0B39B0AC080E0089580E0089581E0D0
:1003F000089582E0089583E0089584E00895DF92EF
:10040000EF92FF920F931F93CF93DF93EC010FEFC7
:100410001FEC0F2EFFE3FF2EF02D0F2EFCEFEF2E23
:10042000F02D0F2EF3EFDF2EF02D0E94E7018883D1
:100430000E9483018881823061F0833018F481301A
:1004400071F405C0833039F0843049F406C0E2BA53
:10045000ECCFD2BAEACF12BBE8CFF2BAE6CF02BBFA
:10046000E4CF8D9A959885B38F6085BB80E060E07E
:100470000E94830081E060E00E94B40080E690E08A
:100480000E94C00082E060E00E94B40080E790E03B
:100490000E94C000369A82E066E00E94B40064B117
:1004A00075B180E090E044E00E94CF00F3CF0F935D
:1004B0001F93062F882319F0662359F411C0662371
:1004C00079F010E08CE10E9441001F5F1017D0F31B
:1004D00007C010E088E10E9441001F5F1017D0F3B1
:1004E0001F910F9108950F931F93CF93DF9383E391
:1004F00090E068E040E021E00E943C01889A9598F5
:1005000085B38F6085BB80E060E00E94830081E05E
:1005100060E00E94B40080E890E00E94C00082E0A9
:1005200060E00E94B4008FE990E00E94C000CDEB33
:10053000D0E00FE910E0CE010E9468018DE00E943A
:1005400064018AE00E946401C8010E9468018DE094
:100550000E9464018AE00E9464018DE00E946401AF
:100560008AE00E94640181E061E00E945702E3CFCB
:10057000DF93CF93CDB7DEB72A970FB6F894DEBFDF
:100580000FBECDBFDE011196EEE1F1E09AE00190E1
:100590000D929150E1F7FE01E80FF11D418180E0DD
:1005A00090E020E030E045BB01968A309105DCF315
:1005B000C901F9CFEF92FF920F931F93DF93CF936F
:1005C000CDB7DEB72A970FB6F894DEBF0FBECDBF0A
:1005D000DE011196E4E1F1E08AE001900D92815094
:1005E000E1F76FEF80E090E0AFEF7E010894E11C4F
:1005F000F11C40E050E062BB662329F08830910591
:1006000024F4660F03C06A2F01C06A2FF701E80FB8
:10061000F91F708175BB0FEF19E628E101501040FA
:100620002040E1F700C0000001968A3091051CF3DC
:10063000CA01E1CF85BB96989598979A82E08A95F2
:10064000F1F700C097988FE697E10197F1F700C0A6
:100650000000089585BB969A9598979A82E08A95AE
:10066000F1F700C097988FEC97E00197F1F700C081
:10067000000008958FEF81BB84BB8FE39CE9019755
:10068000F1F700C0000088E30E941A038CE00E948A
:100690001A0386E00E941A0381E00E941A0380E890
:1006A0000E941A030895CF93DF93EC018881882379
:1006B00031F021960E942A0389918823D9F7DF918E
:1006C000CF910895CF93DF93EA01882341F46031FD
:1006D00078F4862F8F7080680E941A0309C08130D9
:1006E00039F4603128F4862F8F70806C0E941A03D1
:1006F000CE010E945303DF91CF91089581E00E94C3
:100700001A0380E80E941A030895CF92DF92EF92B5
:10071000FF920F931F93CF93DF930E943A038FEDC5
:1007200090E00E94530381E061E049EE50E00E94B6
:1007300062030CE010E0CC24DD240F2EFEE1EF2E4E
:10074000FF24F02D101611068CF4E6018CE10E94B6
:100750001A038FEF94E3ACE081509040A040E1F7A2
:1007600000C000002196C017D10784F3E70188E19B
:100770000E941A038FEF94E3ACE081509040A040B8
:10078000E1F700C00000219791F78701DBCF1ABA8B
:1007900087E886B980E487B9089597B18F70982B60
:1007A00097B9369A349BFECF8AE18A95F1F700C05B
:1007B00084B195B1392F20E0280F311D822F932F5E
:1007C00008950F931F93DF93CF9300D000D00F9223
:1007D000CDB7DEB70E94C7030E943A0385EF90E0D1
:1007E0000E94530381E060E044E051E00E94620314
:1007F0008E010F5F1F4F84EC0E941A0380E00E945D
:10080000CD03B8014AE050E00E943C0481E066E07C
:10081000A8010E9462038FEF94E3ACE08150904006
:10082000A040E1F700C00000E6CF0E94E10380E0B5
:1008300090E00895A1E21A2EAA1BBB1BFD010DC07A
:10084000AA1FBB1FEE1FFF1FA217B307E407F50780
:1008500020F0A21BB30BE40BF50B661F771F881F5C
:10086000991F1A9469F760957095809590959B01F2
:10087000AC01BD01CF010895FB019F01E894423016
:10088000C4F04532B4F44A3029F497FB1EF4909535
:1008900081959F4F642F77270E946D04805D8A3376
:1008A0000CF0895D8193CB010097A1F716F45DE20E
:1008B00051931082C9010C945D04DC01FC01672F87
:1008C00071917723E1F7329704C07C916D93708327
:1008D0006291AE17BF07C8F30895AA1BBB1B51E175
:1008E00007C0AA1FBB1FA617B70710F0A61BB70BA0
:1008F000881F991F5A95A9F780959095BC01CD0145
:060900000895F894FFCFFA
:10090600414443264C4344206279444E6861740056
:10091600414443303A20303030302F3130323400C9
:100926005472616E2044616E2C20323031787878B2
:1009360078782C204454565430782D6B36780056EF
:1009460069656E20445456542C205472756F6E6738
:10095600204448424B204861204E6F69004C652078
:10096600447579204E6861742C203230313633302C
:1009760033372C204454565430372D6B36310049CA
:10098600203C332048555354004C6520447579204B
:100996004E686174005465737420414443202620D8
:1009A6004C434400414443303A20202020202F313C
:1009B6003032330088EB4C492B1918CB080988EBE9
:0809C6004C492B1918CB08095C
:00000001FF
